:100000000C9462000C948A000C948A000C948A0070
:100010000C948A000C948A000C948A000C948A0038
:100020000C948A000C948A000C948A000C948A0028
:100030000C948A000C948A000C948A000C948A0018
:100040000C94C6020C948A000C9472030C948A00DF
:100050000C948A000C948A000C948A000C948A00F8
:100060000C948A000C948A000000000024002700F1
:100070002A0000000000250028002B0000000000DE
:1000800023002600290004040404040404040202DA
:100090000202020203030303030301020408102007
:1000A0004080010204081020010204081020000012
:1000B0000007000201000003040600000000000029
:1000C0000000670411241FBECFEFD8E0DEBFCDBF14
:1000D00011E0A0E0B1E0E4E1FAE002C005900D9289
:1000E000A631B107D9F711E0A6E1B1E001C01D9238
:1000F000A53BB107E1F710E0C4ECD0E004C02297C3
:10010000FE010E940405C23CD107C9F70E94DF002E
:100110000C9408050C94000083EA91E00E941804F6
:100120008823A9F083EA91E00E942C04823791058C
:1001300071F482E061E00E94060161E070E080E01D
:1001400090E00E940E0382E060E00E94060183EAD4
:1001500091E060E071E00E94F70180E00E94A2015E
:10016000BC0183EA91E00E94BE0283EA91E067E06D
:1001700071E00E94F70186E00E945301BC0183EA0E
:1001800091E00E94BE026AE070E080E090E00E9490
:100190000E03089583EA91E040E855E260E070E0E4
:1001A0000E94AF0387E061E00E94E60082E061E028
:1001B0000E94E60087E061E00E94060108950E9427
:1001C00038030E94CA000E948C00FDCF282F30E027
:1001D000C90186569F4FFC0194912A573F4FF90160
:1001E0008491882391F0E82FF0E0EE0FFF1FE8598B
:1001F000FF4FA591B491662329F48C9190958923A2
:100200008C9308958C91892B8C930895482F50E0FE
:10021000CA0182559F4FFC012491CA0186569F4F07
:10022000FC0194914A575F4FFA0134913323D1F185
:10023000222331F1233021F4809180008F7705C093
:10024000243031F4809180008F7D8093800018C02D
:10025000213019F484B58F7704C0223021F484B59D
:100260008F7D84BD0DC0263021F48091B0008F7742
:1002700005C0273029F48091B0008F7D8093B000B5
:10028000E32FF0E0EE0FFF1FEE58FF4FA591B49162
:10029000662329F48C91909589238C9308958C91F1
:1002A000892B8C930895682F70E0CB0182559F4F66
:1002B000FC012491CB0186569F4FFC0144916A5763
:1002C0007F4FFB019491992319F420E030E038C06E
:1002D000222331F1233021F4809180008F7705C0F3
:1002E000243031F4809180008F7D8093800018C08D
:1002F000213019F484B58F7704C0223021F484B5FD
:100300008F7D84BD0DC0263021F48091B0008F77A1
:1003100005C0273029F48091B0008F7D8093B00014
:10032000892F90E0880F991F84589F4FFC01A59159
:10033000B4918C9120E030E0842311F021E030E092
:10034000C9010895877090910B019295990F990FAB
:10035000907C982B90937C0080917A0080648093AD
:100360007A0080917A0086FDFCCF20917800409140
:100370007900942F80E030E0282B392BC9010895B3
:100380000F931F93CF93DF938C01EB0109C021964C
:10039000D801ED91FC910190F081E02DC801099503
:1003A00068816623A1F7DF91CF911F910F91089586
:1003B000EF92FF920F931F93CF93DF938C017B01FA
:1003C000EA010CC0D7016D917D01D801ED91FC913E
:1003D0000190F081E02DC80109952197209791F7B0
:1003E000DF91CF911F910F91FF90EF900895DC0165
:1003F000ED91FC910280F381E02D099508952F92F3
:100400003F924F925F926F927F928F929F92AF92A4
:10041000BF92CF92DF92EF92FF920F931F93DF93E1
:10042000CF93CDB7DEB7A0970FB6F894DEBF0FBE5F
:10043000CDBF1C016A017B014115510561057105A4
:1004400049F4DC01ED91FC910190F081E02D60E335
:10045000099554C0882499245401422E55246624B9
:10046000772401E010E00C0F1D1F080D191DC701B6
:10047000B601A30192010E94B104F80160830894BF
:10048000811C911CA11CB11CC701B601A3019201E2
:100490000E94B104C901DA016C017D01C114D104CB
:1004A000E104F104F1F681E0E82EF12CEC0EFD1EE2
:1004B000E80CF91C3E010894611C711CD501C401B3
:1004C0000197A109B1096C01C818D90814C0F60137
:1004D000EE0DFF1D60816A3010F4605D01C0695C43
:1004E000D101ED91FC910190F081E02DC1010995C0
:1004F0000894E108F1086E147F0449F7A0960FB63E
:10050000F894DEBF0FBECDBFCF91DF911F910F9149
:10051000FF90EF90DF90CF90BF90AF909F908F9023
:100520007F906F905F904F903F902F900895EF9243
:10053000FF920F931F93CF93DF93EC017A018B010E
:1005400077FF0FC0E881F9810190F081E02D6DE225
:10055000099510950095F094E094E11CF11C011DA3
:10056000111DCE01B801A7012AE00E94FF01DF9111
:10057000CF911F910F91FF90EF900895AB016627E7
:1005800057FD6095762F0E94970208951F920F9253
:100590000FB60F9211242F933F938F939F93AF9396
:1005A000BF9380911A0190911B01A0911C01B09101
:1005B0001D0130911E010196A11DB11D232F2D5F3C
:1005C0002D3720F02D570196A11DB11D20931E013E
:1005D00080931A0190931B01A0931C01B0931D01FD
:1005E0008091160190911701A0911801B091190105
:1005F0000196A11DB11D8093160190931701A09340
:100600001801B0931901BF91AF919F918F913F91C4
:100610002F910F900FBE0F901F901895EF92FF92A1
:100620000F931F937B018C018FB7F89440911A01AF
:1006300050911B0160911C0170911D018FBF2FB75C
:10064000F89480911A0190911B01A0911C01B09126
:100650001D012FBF841B950BA60BB70BE816F906DF
:100660000A071B0760F71F910F91FF90EF90089505
:10067000789484B5826084BD84B5816084BD85B57D
:10068000826085BD85B5816085BDEEE6F0E0808144
:1006900081608083E1E8F0E08081826080838081F6
:1006A00081608083E0E8F0E0808181608083E1EB1D
:1006B000F0E0808184608083E0EBF0E08081816005
:1006C0008083EAE7F0E080818460808380818260BB
:1006D00080838081816080838081806880831092A4
:1006E000C10008951F920F920FB60F9211242F93FD
:1006F0003F934F935F936F937F938F939F93AF93AA
:10070000BF93EF93FF934091C600E0919F01F0915A
:10071000A001CF01019660E870E00E949E049C0158
:100720008091A1019091A2012817390739F0E15E6B
:10073000FE4F40833093A00120939F01FF91EF91E2
:10074000BF91AF919F918F917F916F915F914F91E9
:100750003F912F910F900FBE0F901F901895AF9261
:10076000BF92CF92DF92EF92FF920F931F93CF939E
:10077000DF936C017A018B01DC011496AD90BC9083
:100780001597CB01BA0122E030E040E050E00E9432
:10079000D304205C3D4B404F5F4FCA01B901A80113
:1007A00097010E94D304C901DA010197A109B10997
:1007B000292F3A2F4B2F552747FD5A950196A11DFA
:1007C000B11DE5012883E601EE81FF818150808320
:1007D000EA85FB85208141E050E0CA010E8402C019
:1007E000880F991F0A94E2F7282B2083EA85FB855E
:1007F0002081CA010F8402C0880F991F0A94E2F772
:10080000282B2083EA85FB858081088802C0440F5D
:10081000551F0A94E2F7842B8083DF91CF911F91BB
:100820000F91FF90EF90DF90CF90BF90AF90089521
:10083000DC011296ED91FC911397E058FF4F8191E6
:10084000919180589F4F20813181821B930B60E8EA
:1008500070E00E949E040895CF93DF93DC0112960E
:10086000ED91FC911397EF01CE57DF4F48815981ED
:10087000E058FF4F80819181E058F0408417950740
:1008800019F42FEF3FEF0CC0E40FF51F2081CA01D0
:10089000019660E870E00E949E049983888330E0AE
:1008A000C901DF91CF910895FC01A085B18521890F
:1008B0008C9190E0022E02C0959587950A94E2F7FC
:1008C00080FFF6CF0484F585E02D6083089580E1F4
:1008D00091E09093A4018093A3018FE191E0909324
:1008E000A6018093A50185EC90E09093A8018093E8
:1008F000A70184EC90E09093AA018093A90180EC79
:1009000090E09093AC018093AB0181EC90E09093E8
:10091000AE018093AD0186EC90E09093B00180939E
:10092000AF0184E08093B10183E08093B20187E05E
:100930008093B30185E08093B401089597FB092E5D
:1009400007260AD077FD04D049D006D000201AF43B
:10095000709561957F4F0895F6F7909581959F4F1B
:100960000895A1E21A2EAA1BBB1BFD010DC0AA1FF0
:10097000BB1FEE1FFF1FA217B307E407F50720F008
:10098000A21BB30BE40BF50B661F771F881F991F83
:100990001A9469F760957095809590959B01AC01CC
:1009A000BD01CF01089597FB092E05260ED057FDF6
:1009B00004D0D7DF0AD0001C38F45095409530950C
:1009C00021953F4F4F4F5F4F0895F6F790958095D3
:1009D000709561957F4F8F4F9F4F0895AA1BBB1B4A
:1009E00051E107C0AA1FBB1FA617B70710F0A61B2F
:1009F000B70B881F991F5A95A9F780959095BC0150
:100A0000CD010895EE0FFF1F0590F491E02D09949C
:040A1000F894FFCF88
:100A14002044455054480020474F00010000000086
:060A24005404C001D801DA
:00000001FF
